:020000001528C1
:0C00060083120D088A000C08820008001C
:1000120003208A110A128000840A8C0A03198D0AAD
:08002200C003031D09280800BA
:10002A0083128601831686012130831286002930C5
:10003A00CB009630CC007F30CD00CD0B2228CC0BE4
:10004A002228CB0B2228113086000630CB00133031
:10005A00CC00AD30CD00CD0B3028CC0B3028CB0BEB
:10006A00302800000000093086000630CB0013302B
:10007A00CC00AD30CD00CD0B4028CC0B4028CB0BAB
:10008A00402800000000093086000630CB001330FB
:10009A00CC00AD30CD00CD0B5028CC0B5028CB0B6B
:1000AA005028000000000B3086000630CB001330C9
:1000BA00CC00AD30CD00CD0B6028CC0B6028CB0B2B
:1000CA006028000000000C3086002930CB009630F2
:1000DA00CC007F30CD00CD0B7028CC0B7028CB0B19
:1000EA0070280A3086000630CB001330CC00AD30C1
:1000FA00CD00CD0B7E28CC0B7E28CB0B7E280000B2
:10010A000000093086000630CB001330CC00AD3039
:10011A00CD00CD0B8E28CC0B8E28CB0B8E28000061
:10012A000000193086000630CB001330CC00AD3009
:10013A00CD00CD0B9E28CC0B9E28CB0B9E28000011
:10014A000000213086000630CB001330CC00AD30E1
:10015A00CD00CD0BAE28CC0BAE28CB0BAE280000C1
:06016A0000001928B7286F
:02400E00FA3F77
:00000001FF
